{
  "_format": "hh-sol-artifact-1",
  "contractName": "AutomatedPayment",
  "sourceName": "contracts/AutomatedPayment.sol",
  "abi": [
    {
      "inputs": [
        {
          "internalType": "address",
          "name": "owner",
          "type": "address"
        },
        {
          "internalType": "uint256",
          "name": "interval",
          "type": "uint256"
        }
      ],
      "stateMutability": "nonpayable",
      "type": "constructor"
    },
    {
      "inputs": [],
      "name": "AutomatedPayment__CannotPerformUpkeep",
      "type": "error"
    },
    {
      "inputs": [],
      "name": "AutomatedPayment__NotFound",
      "type": "error"
    },
    {
      "inputs": [],
      "name": "AutomatedPayment__OnlyOwnerAllowed",
      "type": "error"
    },
    {
      "inputs": [
        {
          "internalType": "address payable",
          "name": "employee",
          "type": "address"
        },
        {
          "internalType": "uint256",
          "name": "salary",
          "type": "uint256"
        }
      ],
      "name": "addEmployee",
      "outputs": [],
      "stateMutability": "nonpayable",
      "type": "function"
    },
    {
      "inputs": [
        {
          "internalType": "bytes",
          "name": "",
          "type": "bytes"
        }
      ],
      "name": "checkUpkeep",
      "outputs": [
        {
          "internalType": "bool",
          "name": "upKeepNeeded",
          "type": "bool"
        },
        {
          "internalType": "bytes",
          "name": "",
          "type": "bytes"
        }
      ],
      "stateMutability": "view",
      "type": "function"
    },
    {
      "inputs": [
        {
          "internalType": "address",
          "name": "",
          "type": "address"
        }
      ],
      "name": "coorespondingFunderAmount",
      "outputs": [
        {
          "internalType": "uint256",
          "name": "",
          "type": "uint256"
        }
      ],
      "stateMutability": "view",
      "type": "function"
    },
    {
      "inputs": [
        {
          "internalType": "address",
          "name": "employee",
          "type": "address"
        }
      ],
      "name": "deleteEmployee",
      "outputs": [],
      "stateMutability": "nonpayable",
      "type": "function"
    },
    {
      "inputs": [
        {
          "internalType": "uint256",
          "name": "",
          "type": "uint256"
        }
      ],
      "name": "employees",
      "outputs": [
        {
          "internalType": "address payable",
          "name": "",
          "type": "address"
        }
      ],
      "stateMutability": "view",
      "type": "function"
    },
    {
      "inputs": [],
      "name": "fund",
      "outputs": [],
      "stateMutability": "payable",
      "type": "function"
    },
    {
      "inputs": [
        {
          "internalType": "uint256",
          "name": "",
          "type": "uint256"
        }
      ],
      "name": "funders",
      "outputs": [
        {
          "internalType": "address",
          "name": "",
          "type": "address"
        }
      ],
      "stateMutability": "view",
      "type": "function"
    },
    {
      "inputs": [],
      "name": "getBalance",
      "outputs": [
        {
          "internalType": "uint256",
          "name": "",
          "type": "uint256"
        }
      ],
      "stateMutability": "view",
      "type": "function"
    },
    {
      "inputs": [
        {
          "internalType": "address",
          "name": "employee",
          "type": "address"
        }
      ],
      "name": "getEmployeeSalary",
      "outputs": [
        {
          "internalType": "uint256",
          "name": "",
          "type": "uint256"
        }
      ],
      "stateMutability": "view",
      "type": "function"
    },
    {
      "inputs": [],
      "name": "getEmployees",
      "outputs": [
        {
          "internalType": "address payable[]",
          "name": "",
          "type": "address[]"
        }
      ],
      "stateMutability": "view",
      "type": "function"
    },
    {
      "inputs": [],
      "name": "getFunders",
      "outputs": [
        {
          "internalType": "address[]",
          "name": "",
          "type": "address[]"
        }
      ],
      "stateMutability": "view",
      "type": "function"
    },
    {
      "inputs": [],
      "name": "getInterval",
      "outputs": [
        {
          "internalType": "uint256",
          "name": "",
          "type": "uint256"
        }
      ],
      "stateMutability": "view",
      "type": "function"
    },
    {
      "inputs": [],
      "name": "getOwner",
      "outputs": [
        {
          "internalType": "address",
          "name": "",
          "type": "address"
        }
      ],
      "stateMutability": "view",
      "type": "function"
    },
    {
      "inputs": [],
      "name": "i_interval",
      "outputs": [
        {
          "internalType": "uint256",
          "name": "",
          "type": "uint256"
        }
      ],
      "stateMutability": "view",
      "type": "function"
    },
    {
      "inputs": [],
      "name": "i_owner",
      "outputs": [
        {
          "internalType": "address",
          "name": "",
          "type": "address"
        }
      ],
      "stateMutability": "view",
      "type": "function"
    },
    {
      "inputs": [
        {
          "internalType": "address",
          "name": "employee",
          "type": "address"
        }
      ],
      "name": "isEmployee",
      "outputs": [
        {
          "internalType": "uint256",
          "name": "",
          "type": "uint256"
        }
      ],
      "stateMutability": "view",
      "type": "function"
    },
    {
      "inputs": [
        {
          "internalType": "bytes",
          "name": "",
          "type": "bytes"
        }
      ],
      "name": "performUpkeep",
      "outputs": [],
      "stateMutability": "nonpayable",
      "type": "function"
    },
    {
      "inputs": [],
      "name": "startTime",
      "outputs": [
        {
          "internalType": "uint256",
          "name": "",
          "type": "uint256"
        }
      ],
      "stateMutability": "view",
      "type": "function"
    },
    {
      "inputs": [
        {
          "internalType": "address",
          "name": "employee",
          "type": "address"
        },
        {
          "internalType": "uint256",
          "name": "salary",
          "type": "uint256"
        }
      ],
      "name": "updateEmployeeSalary",
      "outputs": [],
      "stateMutability": "nonpayable",
      "type": "function"
    },
    {
      "stateMutability": "payable",
      "type": "receive"
    }
  ],
  "bytecode": "0x60c06040523480156200001157600080fd5b506040516200191038038062001910833981810160405281019062000037919062000127565b8173ffffffffffffffffffffffffffffffffffffffff1660a08173ffffffffffffffffffffffffffffffffffffffff168152505080608081815250504260008190555050506200016e565b600080fd5b600073ffffffffffffffffffffffffffffffffffffffff82169050919050565b6000620000b48262000087565b9050919050565b620000c681620000a7565b8114620000d257600080fd5b50565b600081519050620000e681620000bb565b92915050565b6000819050919050565b6200010181620000ec565b81146200010d57600080fd5b50565b6000815190506200012181620000f6565b92915050565b6000806040838503121562000141576200014062000082565b5b60006200015185828601620000d5565b9250506020620001648582860162000110565b9150509250929050565b60805160a051611752620001be6000396000818161087c01528181610a8001528181610ace01528181610b480152610de10152600081816107d0015281816107fa0152610aa801526117526000f3fe6080604052600436106101185760003560e01c806378e97925116100a0578063dc0d3dff11610064578063dc0d3dff146103aa578063e7fd9a13146103e7578063ea63a04414610410578063ea66543f1461043b578063ec34ece81461047857610127565b806378e97925146102f4578063893d20e81461031f57806391ad27b41461034a578063b60d428814610375578063dba6335f1461037f57610127565b80636775a4c2116100e75780636775a4c2146101e85780636919207d146102255780636e04ff0d146102505780636e7c4ab11461028e5780636f5be0d6146102b757610127565b806312065fe01461012c5780634585e33b146101575780634739326b146101805780634abefa36146101bd57610127565b36610127576101256104a1565b005b600080fd5b34801561013857600080fd5b5061014161055c565b60405161014e9190610f75565b60405180910390f35b34801561016357600080fd5b5061017e600480360381019061017991906110ea565b610564565b005b34801561018c57600080fd5b506101a760048036038101906101a2919061115f565b6106e9565b6040516101b491906111cd565b60405180910390f35b3480156101c957600080fd5b506101d2610728565b6040516101df91906112a6565b60405180910390f35b3480156101f457600080fd5b5061020f600480360381019061020a9190611306565b6107b6565b60405161021c9190610f75565b60405180910390f35b34801561023157600080fd5b5061023a6107ce565b6040516102479190610f75565b60405180910390f35b34801561025c57600080fd5b50610277600480360381019061027291906110ea565b6107f2565b6040516102859291906113d6565b60405180910390f35b34801561029a57600080fd5b506102b560048036038101906102b09190611306565b610863565b005b3480156102c357600080fd5b506102de60048036038101906102d99190611306565b610a2d565b6040516102eb9190610f75565b60405180910390f35b34801561030057600080fd5b50610309610a76565b6040516103169190610f75565b60405180910390f35b34801561032b57600080fd5b50610334610a7c565b6040516103419190611415565b60405180910390f35b34801561035657600080fd5b5061035f610aa4565b60405161036c9190610f75565b60405180910390f35b61037d6104a1565b005b34801561038b57600080fd5b50610394610acc565b6040516103a19190611415565b60405180910390f35b3480156103b657600080fd5b506103d160048036038101906103cc919061115f565b610af0565b6040516103de9190611415565b60405180910390f35b3480156103f357600080fd5b5061040e6004803603810190610409919061145c565b610b2f565b005b34801561041c57600080fd5b50610425610c5f565b604051610432919061155a565b60405180910390f35b34801561044757600080fd5b50610462600480360381019061045d9190611306565b610ced565b60405161046f9190610f75565b60405180910390f35b34801561048457600080fd5b5061049f600480360381019061049a919061157c565b610dc8565b005b6002339080600181540180825580915050600190039060005260206000200160009091909190916101000a81548173ffffffffffffffffffffffffffffffffffffffff021916908373ffffffffffffffffffffffffffffffffffffffff16021790555034600460003373ffffffffffffffffffffffffffffffffffffffff1673ffffffffffffffffffffffffffffffffffffffff168152602001908152602001600020600082825461055391906115eb565b92505081905550565b600047905090565b600061057e604051806020016040528060008152506107f2565b509050806105b8576040517f4098bdc700000000000000000000000000000000000000000000000000000000815260040160405180910390fd5b60005b6001805490508110156106dd57600181815481106105dc576105db611641565b5b9060005260206000200160009054906101000a900473ffffffffffffffffffffffffffffffffffffffff1673ffffffffffffffffffffffffffffffffffffffff166108fc600360006001858154811061063857610637611641565b5b9060005260206000200160009054906101000a900473ffffffffffffffffffffffffffffffffffffffff1673ffffffffffffffffffffffffffffffffffffffff1673ffffffffffffffffffffffffffffffffffffffff168152602001908152602001600020549081150290604051600060405180830381858888f193505050501580156106c9573d6000803e3d6000fd5b5080806106d590611670565b9150506105bb565b50426000819055505050565b600181815481106106f957600080fd5b906000526020600020016000915054906101000a900473ffffffffffffffffffffffffffffffffffffffff1681565b606060018054806020026020016040519081016040528092919081815260200182805480156107ac57602002820191906000526020600020905b8160009054906101000a900473ffffffffffffffffffffffffffffffffffffffff1673ffffffffffffffffffffffffffffffffffffffff1681526020019060010190808311610762575b5050505050905090565b60046020528060005260406000206000915090505481565b7f000000000000000000000000000000000000000000000000000000000000000081565b6000606060007f00000000000000000000000000000000000000000000000000000000000000006000544261082791906116b9565b1190506000610834610ea3565b4710159050600060018080549050101590508280156108505750815b80156108595750805b9450505050915091565b3373ffffffffffffffffffffffffffffffffffffffff167f000000000000000000000000000000000000000000000000000000000000000073ffffffffffffffffffffffffffffffffffffffff16146108e8576040517f6cdf338d00000000000000000000000000000000000000000000000000000000815260040160405180910390fd5b60006108f382610ced565b9050600180808054905061090791906116b9565b8154811061091857610917611641565b5b9060005260206000200160009054906101000a900473ffffffffffffffffffffffffffffffffffffffff166001828154811061095757610956611641565b5b9060005260206000200160006101000a81548173ffffffffffffffffffffffffffffffffffffffff021916908373ffffffffffffffffffffffffffffffffffffffff16021790555060018054806109b1576109b06116ed565b5b6001900381819060005260206000200160006101000a81549073ffffffffffffffffffffffffffffffffffffffff02191690559055600360008373ffffffffffffffffffffffffffffffffffffffff1673ffffffffffffffffffffffffffffffffffffffff168152602001908152602001600020600090555050565b6000600360008373ffffffffffffffffffffffffffffffffffffffff1673ffffffffffffffffffffffffffffffffffffffff168152602001908152602001600020549050919050565b60005481565b60007f0000000000000000000000000000000000000000000000000000000000000000905090565b60007f0000000000000000000000000000000000000000000000000000000000000000905090565b7f000000000000000000000000000000000000000000000000000000000000000081565b60028181548110610b0057600080fd5b906000526020600020016000915054906101000a900473ffffffffffffffffffffffffffffffffffffffff1681565b3373ffffffffffffffffffffffffffffffffffffffff167f000000000000000000000000000000000000000000000000000000000000000073ffffffffffffffffffffffffffffffffffffffff1614610bb4576040517f6cdf338d00000000000000000000000000000000000000000000000000000000815260040160405180910390fd5b6001829080600181540180825580915050600190039060005260206000200160009091909190916101000a81548173ffffffffffffffffffffffffffffffffffffffff021916908373ffffffffffffffffffffffffffffffffffffffff16021790555080600360008473ffffffffffffffffffffffffffffffffffffffff1673ffffffffffffffffffffffffffffffffffffffff168152602001908152602001600020819055505050565b60606002805480602002602001604051908101604052809291908181526020018280548015610ce357602002820191906000526020600020905b8160009054906101000a900473ffffffffffffffffffffffffffffffffffffffff1673ffffffffffffffffffffffffffffffffffffffff1681526020019060010190808311610c99575b5050505050905090565b600080600090505b600180549050811015610d90578273ffffffffffffffffffffffffffffffffffffffff1660018281548110610d2d57610d2c611641565b5b9060005260206000200160009054906101000a900473ffffffffffffffffffffffffffffffffffffffff1673ffffffffffffffffffffffffffffffffffffffff161415610d7d5780915050610dc3565b8080610d8890611670565b915050610cf5565b506040517f54ed597e00000000000000000000000000000000000000000000000000000000815260040160405180910390fd5b919050565b3373ffffffffffffffffffffffffffffffffffffffff167f000000000000000000000000000000000000000000000000000000000000000073ffffffffffffffffffffffffffffffffffffffff1614610e4d576040517f6cdf338d00000000000000000000000000000000000000000000000000000000815260040160405180910390fd5b6000610e5883610ced565b905081600360008573ffffffffffffffffffffffffffffffffffffffff1673ffffffffffffffffffffffffffffffffffffffff16815260200190815260200160002081905550505050565b60008060005b600180549050811015610f54576003600060018381548110610ece57610ecd611641565b5b9060005260206000200160009054906101000a900473ffffffffffffffffffffffffffffffffffffffff1673ffffffffffffffffffffffffffffffffffffffff1673ffffffffffffffffffffffffffffffffffffffff1681526020019081526020016000205482610f3f91906115eb565b91508080610f4c90611670565b915050610ea9565b508091505090565b6000819050919050565b610f6f81610f5c565b82525050565b6000602082019050610f8a6000830184610f66565b92915050565b6000604051905090565b600080fd5b600080fd5b600080fd5b600080fd5b6000601f19601f8301169050919050565b7f4e487b7100000000000000000000000000000000000000000000000000000000600052604160045260246000fd5b610ff782610fae565b810181811067ffffffffffffffff8211171561101657611015610fbf565b5b80604052505050565b6000611029610f90565b90506110358282610fee565b919050565b600067ffffffffffffffff82111561105557611054610fbf565b5b61105e82610fae565b9050602081019050919050565b82818337600083830152505050565b600061108d6110888461103a565b61101f565b9050828152602081018484840111156110a9576110a8610fa9565b5b6110b484828561106b565b509392505050565b600082601f8301126110d1576110d0610fa4565b5b81356110e184826020860161107a565b91505092915050565b600060208284031215611100576110ff610f9a565b5b600082013567ffffffffffffffff81111561111e5761111d610f9f565b5b61112a848285016110bc565b91505092915050565b61113c81610f5c565b811461114757600080fd5b50565b60008135905061115981611133565b92915050565b60006020828403121561117557611174610f9a565b5b60006111838482850161114a565b91505092915050565b600073ffffffffffffffffffffffffffffffffffffffff82169050919050565b60006111b78261118c565b9050919050565b6111c7816111ac565b82525050565b60006020820190506111e260008301846111be565b92915050565b600081519050919050565b600082825260208201905092915050565b6000819050602082019050919050565b61121d816111ac565b82525050565b600061122f8383611214565b60208301905092915050565b6000602082019050919050565b6000611253826111e8565b61125d81856111f3565b935061126883611204565b8060005b838110156112995781516112808882611223565b975061128b8361123b565b92505060018101905061126c565b5085935050505092915050565b600060208201905081810360008301526112c08184611248565b905092915050565b60006112d38261118c565b9050919050565b6112e3816112c8565b81146112ee57600080fd5b50565b600081359050611300816112da565b92915050565b60006020828403121561131c5761131b610f9a565b5b600061132a848285016112f1565b91505092915050565b60008115159050919050565b61134881611333565b82525050565b600081519050919050565b600082825260208201905092915050565b60005b8381101561138857808201518184015260208101905061136d565b83811115611397576000848401525b50505050565b60006113a88261134e565b6113b28185611359565b93506113c281856020860161136a565b6113cb81610fae565b840191505092915050565b60006040820190506113eb600083018561133f565b81810360208301526113fd818461139d565b90509392505050565b61140f816112c8565b82525050565b600060208201905061142a6000830184611406565b92915050565b611439816111ac565b811461144457600080fd5b50565b60008135905061145681611430565b92915050565b6000806040838503121561147357611472610f9a565b5b600061148185828601611447565b92505060206114928582860161114a565b9150509250929050565b600081519050919050565b600082825260208201905092915050565b6000819050602082019050919050565b6114d1816112c8565b82525050565b60006114e383836114c8565b60208301905092915050565b6000602082019050919050565b60006115078261149c565b61151181856114a7565b935061151c836114b8565b8060005b8381101561154d57815161153488826114d7565b975061153f836114ef565b925050600181019050611520565b5085935050505092915050565b6000602082019050818103600083015261157481846114fc565b905092915050565b6000806040838503121561159357611592610f9a565b5b60006115a1858286016112f1565b92505060206115b28582860161114a565b9150509250929050565b7f4e487b7100000000000000000000000000000000000000000000000000000000600052601160045260246000fd5b60006115f682610f5c565b915061160183610f5c565b9250827fffffffffffffffffffffffffffffffffffffffffffffffffffffffffffffffff03821115611636576116356115bc565b5b828201905092915050565b7f4e487b7100000000000000000000000000000000000000000000000000000000600052603260045260246000fd5b600061167b82610f5c565b91507fffffffffffffffffffffffffffffffffffffffffffffffffffffffffffffffff8214156116ae576116ad6115bc565b5b600182019050919050565b60006116c482610f5c565b91506116cf83610f5c565b9250828210156116e2576116e16115bc565b5b828203905092915050565b7f4e487b7100000000000000000000000000000000000000000000000000000000600052603160045260246000fdfea2646970667358221220df429c2324c07b7da41454e79ffd893f7f9d08cfde494759eb2d6e4c89332ebc64736f6c63430008090033",
  "linkReferences": {},
  "deployedLinkReferences": {}
}